{
  "_format": "hh-sol-artifact-1",
  "contractName": "HattenSho",
  "sourceName": "contracts/HattenSho.sol",
  "abi": [
    {
      "inputs": [
        {
          "internalType": "address",
          "name": "adminAddress",
          "type": "address"
        },
        {
          "internalType": "address",
          "name": "SBTAddress",
          "type": "address"
        },
        {
          "internalType": "bool",
          "name": "mainnet",
          "type": "bool"
        }
      ],
      "stateMutability": "nonpayable",
      "type": "constructor"
    },
    {
      "inputs": [],
      "name": "InitialRegistryAddressCannotBeZeroAddress",
      "type": "error"
    },
    {
      "inputs": [],
      "name": "OnlyOwner",
      "type": "error"
    },
    {
      "inputs": [
        {
          "internalType": "address",
          "name": "operator",
          "type": "address"
        }
      ],
      "name": "OperatorNotAllowed",
      "type": "error"
    },
    {
      "inputs": [],
      "name": "RegistryHasBeenRevoked",
      "type": "error"
    },
    {
      "anonymous": false,
      "inputs": [
        {
          "indexed": true,
          "internalType": "address",
          "name": "owner",
          "type": "address"
        },
        {
          "indexed": true,
          "internalType": "address",
          "name": "approved",
          "type": "address"
        },
        {
          "indexed": true,
          "internalType": "uint256",
          "name": "tokenId",
          "type": "uint256"
        }
      ],
      "name": "Approval",
      "type": "event"
    },
    {
      "anonymous": false,
      "inputs": [
        {
          "indexed": true,
          "internalType": "address",
          "name": "owner",
          "type": "address"
        },
        {
          "indexed": true,
          "internalType": "address",
          "name": "operator",
          "type": "address"
        },
        {
          "indexed": false,
          "internalType": "bool",
          "name": "approved",
          "type": "bool"
        }
      ],
      "name": "ApprovalForAll",
      "type": "event"
    },
    {
      "anonymous": false,
      "inputs": [
        {
          "indexed": true,
          "internalType": "address",
          "name": "operator",
          "type": "address"
        },
        {
          "indexed": true,
          "internalType": "uint256",
          "name": "level",
          "type": "uint256"
        }
      ],
      "name": "CalLevelChanged",
      "type": "event"
    },
    {
      "anonymous": false,
      "inputs": [
        {
          "indexed": true,
          "internalType": "address",
          "name": "operator",
          "type": "address"
        },
        {
          "indexed": true,
          "internalType": "address",
          "name": "transferer",
          "type": "address"
        }
      ],
      "name": "LocalCalAdded",
      "type": "event"
    },
    {
      "anonymous": false,
      "inputs": [
        {
          "indexed": true,
          "internalType": "address",
          "name": "operator",
          "type": "address"
        },
        {
          "indexed": true,
          "internalType": "address",
          "name": "transferer",
          "type": "address"
        }
      ],
      "name": "LocalCalRemoved",
      "type": "event"
    },
    {
      "anonymous": false,
      "inputs": [
        {
          "indexed": false,
          "internalType": "address",
          "name": "newRegistry",
          "type": "address"
        }
      ],
      "name": "OperatorFilterRegistryAddressUpdated",
      "type": "event"
    },
    {
      "anonymous": false,
      "inputs": [],
      "name": "OperatorFilterRegistryRevoked",
      "type": "event"
    },
    {
      "anonymous": false,
      "inputs": [
        {
          "indexed": true,
          "internalType": "address",
          "name": "previousOwner",
          "type": "address"
        },
        {
          "indexed": true,
          "internalType": "address",
          "name": "newOwner",
          "type": "address"
        }
      ],
      "name": "OwnershipTransferred",
      "type": "event"
    },
    {
      "anonymous": false,
      "inputs": [
        {
          "indexed": true,
          "internalType": "bytes32",
          "name": "role",
          "type": "bytes32"
        },
        {
          "indexed": true,
          "internalType": "bytes32",
          "name": "previousAdminRole",
          "type": "bytes32"
        },
        {
          "indexed": true,
          "internalType": "bytes32",
          "name": "newAdminRole",
          "type": "bytes32"
        }
      ],
      "name": "RoleAdminChanged",
      "type": "event"
    },
    {
      "anonymous": false,
      "inputs": [
        {
          "indexed": true,
          "internalType": "bytes32",
          "name": "role",
          "type": "bytes32"
        },
        {
          "indexed": true,
          "internalType": "address",
          "name": "account",
          "type": "address"
        },
        {
          "indexed": true,
          "internalType": "address",
          "name": "sender",
          "type": "address"
        }
      ],
      "name": "RoleGranted",
      "type": "event"
    },
    {
      "anonymous": false,
      "inputs": [
        {
          "indexed": true,
          "internalType": "bytes32",
          "name": "role",
          "type": "bytes32"
        },
        {
          "indexed": true,
          "internalType": "address",
          "name": "account",
          "type": "address"
        },
        {
          "indexed": true,
          "internalType": "address",
          "name": "sender",
          "type": "address"
        }
      ],
      "name": "RoleRevoked",
      "type": "event"
    },
    {
      "anonymous": false,
      "inputs": [
        {
          "indexed": true,
          "internalType": "address",
          "name": "from",
          "type": "address"
        },
        {
          "indexed": true,
          "internalType": "address",
          "name": "to",
          "type": "address"
        },
        {
          "indexed": true,
          "internalType": "uint256",
          "name": "tokenId",
          "type": "uint256"
        }
      ],
      "name": "Transfer",
      "type": "event"
    },
    {
      "inputs": [],
      "name": "ADMIN",
      "outputs": [
        {
          "internalType": "bytes32",
          "name": "",
          "type": "bytes32"
        }
      ],
      "stateMutability": "view",
      "type": "function"
    },
    {
      "inputs": [],
      "name": "AIRDROP_ROLE",
      "outputs": [
        {
          "internalType": "bytes32",
          "name": "",
          "type": "bytes32"
        }
      ],
      "stateMutability": "view",
      "type": "function"
    },
    {
      "inputs": [],
      "name": "CAL",
      "outputs": [
        {
          "internalType": "contract IContractAllowListProxy",
          "name": "",
          "type": "address"
        }
      ],
      "stateMutability": "view",
      "type": "function"
    },
    {
      "inputs": [],
      "name": "CALLevel",
      "outputs": [
        {
          "internalType": "uint256",
          "name": "",
          "type": "uint256"
        }
      ],
      "stateMutability": "view",
      "type": "function"
    },
    {
      "inputs": [],
      "name": "DEFAULT_ADMIN_ROLE",
      "outputs": [
        {
          "internalType": "bytes32",
          "name": "",
          "type": "bytes32"
        }
      ],
      "stateMutability": "view",
      "type": "function"
    },
    {
      "inputs": [
        {
          "internalType": "address",
          "name": "transferer",
          "type": "address"
        }
      ],
      "name": "addLocalContractAllowList",
      "outputs": [],
      "stateMutability": "nonpayable",
      "type": "function"
    },
    {
      "inputs": [
        {
          "internalType": "address[]",
          "name": "_airdropAddresses",
          "type": "address[]"
        },
        {
          "internalType": "uint256[]",
          "name": "_UserMintAmount",
          "type": "uint256[]"
        }
      ],
      "name": "airdropMint",
      "outputs": [],
      "stateMutability": "nonpayable",
      "type": "function"
    },
    {
      "inputs": [],
      "name": "allowlistType",
      "outputs": [
        {
          "internalType": "uint256",
          "name": "",
          "type": "uint256"
        }
      ],
      "stateMutability": "view",
      "type": "function"
    },
    {
      "inputs": [
        {
          "internalType": "uint256",
          "name": "",
          "type": "uint256"
        },
        {
          "internalType": "address",
          "name": "",
          "type": "address"
        }
      ],
      "name": "allowlistUserAmount",
      "outputs": [
        {
          "internalType": "uint256",
          "name": "",
          "type": "uint256"
        }
      ],
      "stateMutability": "view",
      "type": "function"
    },
    {
      "inputs": [],
      "name": "animationURI",
      "outputs": [
        {
          "internalType": "string",
          "name": "",
          "type": "string"
        }
      ],
      "stateMutability": "view",
      "type": "function"
    },
    {
      "inputs": [
        {
          "internalType": "address",
          "name": "operator",
          "type": "address"
        },
        {
          "internalType": "uint256",
          "name": "tokenId",
          "type": "uint256"
        }
      ],
      "name": "approve",
      "outputs": [],
      "stateMutability": "nonpayable",
      "type": "function"
    },
    {
      "inputs": [
        {
          "internalType": "address",
          "name": "_owner",
          "type": "address"
        }
      ],
      "name": "balanceOf",
      "outputs": [
        {
          "internalType": "uint256",
          "name": "",
          "type": "uint256"
        }
      ],
      "stateMutability": "view",
      "type": "function"
    },
    {
      "inputs": [],
      "name": "baseExtension",
      "outputs": [
        {
          "internalType": "string",
          "name": "",
          "type": "string"
        }
      ],
      "stateMutability": "view",
      "type": "function"
    },
    {
      "inputs": [],
      "name": "baseURI",
      "outputs": [
        {
          "internalType": "string",
          "name": "",
          "type": "string"
        }
      ],
      "stateMutability": "view",
      "type": "function"
    },
    {
      "inputs": [],
      "name": "changeCostOneToTwo",
      "outputs": [],
      "stateMutability": "nonpayable",
      "type": "function"
    },
    {
      "inputs": [],
      "name": "changeCostTwoToThree",
      "outputs": [],
      "stateMutability": "nonpayable",
      "type": "function"
    },
    {
      "inputs": [],
      "name": "cost",
      "outputs": [
        {
          "internalType": "uint256",
          "name": "",
          "type": "uint256"
        }
      ],
      "stateMutability": "view",
      "type": "function"
    },
    {
      "inputs": [],
      "name": "cost2",
      "outputs": [
        {
          "internalType": "uint256",
          "name": "",
          "type": "uint256"
        }
      ],
      "stateMutability": "view",
      "type": "function"
    },
    {
      "inputs": [],
      "name": "cost3",
      "outputs": [
        {
          "internalType": "uint256",
          "name": "",
          "type": "uint256"
        }
      ],
      "stateMutability": "view",
      "type": "function"
    },
    {
      "inputs": [],
      "name": "currentTokenId",
      "outputs": [
        {
          "internalType": "uint256",
          "name": "",
          "type": "uint256"
        }
      ],
      "stateMutability": "view",
      "type": "function"
    },
    {
      "inputs": [],
      "name": "enableRestrict",
      "outputs": [
        {
          "internalType": "bool",
          "name": "",
          "type": "bool"
        }
      ],
      "stateMutability": "view",
      "type": "function"
    },
    {
      "inputs": [
        {
          "internalType": "address",
          "name": "_address",
          "type": "address"
        }
      ],
      "name": "getAllowlistUserAmount",
      "outputs": [
        {
          "internalType": "uint256",
          "name": "",
          "type": "uint256"
        }
      ],
      "stateMutability": "view",
      "type": "function"
    },
    {
      "inputs": [
        {
          "internalType": "uint256",
          "name": "tokenId",
          "type": "uint256"
        }
      ],
      "name": "getApproved",
      "outputs": [
        {
          "internalType": "address",
          "name": "",
          "type": "address"
        }
      ],
      "stateMutability": "view",
      "type": "function"
    },
    {
      "inputs": [],
      "name": "getCurrentCost",
      "outputs": [
        {
          "internalType": "uint256",
          "name": "",
          "type": "uint256"
        }
      ],
      "stateMutability": "view",
      "type": "function"
    },
    {
      "inputs": [],
      "name": "getLocalContractAllowList",
      "outputs": [
        {
          "internalType": "address[]",
          "name": "",
          "type": "address[]"
        }
      ],
      "stateMutability": "view",
      "type": "function"
    },
    {
      "inputs": [
        {
          "internalType": "bytes32",
          "name": "role",
          "type": "bytes32"
        }
      ],
      "name": "getRoleAdmin",
      "outputs": [
        {
          "internalType": "bytes32",
          "name": "",
          "type": "bytes32"
        }
      ],
      "stateMutability": "view",
      "type": "function"
    },
    {
      "inputs": [
        {
          "internalType": "address",
          "name": "_address",
          "type": "address"
        }
      ],
      "name": "getUserMintedAmount",
      "outputs": [
        {
          "internalType": "uint256",
          "name": "",
          "type": "uint256"
        }
      ],
      "stateMutability": "view",
      "type": "function"
    },
    {
      "inputs": [
        {
          "internalType": "uint256",
          "name": "_saleId",
          "type": "uint256"
        },
        {
          "internalType": "address",
          "name": "_address",
          "type": "address"
        }
      ],
      "name": "getUserMintedAmountBySaleId",
      "outputs": [
        {
          "internalType": "uint256",
          "name": "",
          "type": "uint256"
        }
      ],
      "stateMutability": "view",
      "type": "function"
    },
    {
      "inputs": [
        {
          "internalType": "bytes32",
          "name": "role",
          "type": "bytes32"
        },
        {
          "internalType": "address",
          "name": "account",
          "type": "address"
        }
      ],
      "name": "grantRole",
      "outputs": [],
      "stateMutability": "nonpayable",
      "type": "function"
    },
    {
      "inputs": [
        {
          "internalType": "bytes32",
          "name": "role",
          "type": "bytes32"
        },
        {
          "internalType": "address",
          "name": "account",
          "type": "address"
        }
      ],
      "name": "hasRole",
      "outputs": [
        {
          "internalType": "bool",
          "name": "",
          "type": "bool"
        }
      ],
      "stateMutability": "view",
      "type": "function"
    },
    {
      "inputs": [],
      "name": "imageURI",
      "outputs": [
        {
          "internalType": "string",
          "name": "",
          "type": "string"
        }
      ],
      "stateMutability": "view",
      "type": "function"
    },
    {
      "inputs": [],
      "name": "interfaceOfTokenURI",
      "outputs": [
        {
          "internalType": "contract iTokenURI",
          "name": "",
          "type": "address"
        }
      ],
      "stateMutability": "view",
      "type": "function"
    },
    {
      "inputs": [
        {
          "internalType": "address",
          "name": "owner",
          "type": "address"
        },
        {
          "internalType": "address",
          "name": "operator",
          "type": "address"
        }
      ],
      "name": "isApprovedForAll",
      "outputs": [
        {
          "internalType": "bool",
          "name": "",
          "type": "bool"
        }
      ],
      "stateMutability": "view",
      "type": "function"
    },
    {
      "inputs": [],
      "name": "isOperatorFilterRegistryRevoked",
      "outputs": [
        {
          "internalType": "bool",
          "name": "",
          "type": "bool"
        }
      ],
      "stateMutability": "view",
      "type": "function"
    },
    {
      "inputs": [],
      "name": "isSBT",
      "outputs": [
        {
          "internalType": "bool",
          "name": "",
          "type": "bool"
        }
      ],
      "stateMutability": "view",
      "type": "function"
    },
    {
      "inputs": [],
      "name": "maxMintAmountPerTransaction",
      "outputs": [
        {
          "internalType": "uint256",
          "name": "",
          "type": "uint256"
        }
      ],
      "stateMutability": "view",
      "type": "function"
    },
    {
      "inputs": [],
      "name": "maxSupply",
      "outputs": [
        {
          "internalType": "uint256",
          "name": "",
          "type": "uint256"
        }
      ],
      "stateMutability": "view",
      "type": "function"
    },
    {
      "inputs": [],
      "name": "merkleRoot",
      "outputs": [
        {
          "internalType": "bytes32",
          "name": "",
          "type": "bytes32"
        }
      ],
      "stateMutability": "view",
      "type": "function"
    },
    {
      "inputs": [],
      "name": "metadataAttributes",
      "outputs": [
        {
          "internalType": "string",
          "name": "",
          "type": "string"
        }
      ],
      "stateMutability": "view",
      "type": "function"
    },
    {
      "inputs": [],
      "name": "metadataDescription",
      "outputs": [
        {
          "internalType": "string",
          "name": "",
          "type": "string"
        }
      ],
      "stateMutability": "view",
      "type": "function"
    },
    {
      "inputs": [],
      "name": "metadataTitle",
      "outputs": [
        {
          "internalType": "string",
          "name": "",
          "type": "string"
        }
      ],
      "stateMutability": "view",
      "type": "function"
    },
    {
      "inputs": [
        {
          "internalType": "uint256",
          "name": "_mintAmount",
          "type": "uint256"
        },
        {
          "internalType": "uint256",
          "name": "_maxMintAmount",
          "type": "uint256"
        },
        {
          "internalType": "bytes32[]",
          "name": "_merkleProof",
          "type": "bytes32[]"
        }
      ],
      "name": "mint",
      "outputs": [],
      "stateMutability": "payable",
      "type": "function"
    },
    {
      "inputs": [],
      "name": "mintCount",
      "outputs": [
        {
          "internalType": "bool",
          "name": "",
          "type": "bool"
        }
      ],
      "stateMutability": "view",
      "type": "function"
    },
    {
      "inputs": [],
      "name": "mintWithSBT",
      "outputs": [
        {
          "internalType": "bool",
          "name": "",
          "type": "bool"
        }
      ],
      "stateMutability": "view",
      "type": "function"
    },
    {
      "inputs": [],
      "name": "name",
      "outputs": [
        {
          "internalType": "string",
          "name": "",
          "type": "string"
        }
      ],
      "stateMutability": "view",
      "type": "function"
    },
    {
      "inputs": [],
      "name": "onlyAllowlisted",
      "outputs": [
        {
          "internalType": "bool",
          "name": "",
          "type": "bool"
        }
      ],
      "stateMutability": "view",
      "type": "function"
    },
    {
      "inputs": [],
      "name": "operatorFilterRegistry",
      "outputs": [
        {
          "internalType": "contract IOperatorFilterRegistry",
          "name": "",
          "type": "address"
        }
      ],
      "stateMutability": "view",
      "type": "function"
    },
    {
      "inputs": [],
      "name": "owner",
      "outputs": [
        {
          "internalType": "address",
          "name": "",
          "type": "address"
        }
      ],
      "stateMutability": "view",
      "type": "function"
    },
    {
      "inputs": [
        {
          "internalType": "uint256",
          "name": "tokenId",
          "type": "uint256"
        }
      ],
      "name": "ownerOf",
      "outputs": [
        {
          "internalType": "address",
          "name": "",
          "type": "address"
        }
      ],
      "stateMutability": "view",
      "type": "function"
    },
    {
      "inputs": [],
      "name": "paused",
      "outputs": [
        {
          "internalType": "bool",
          "name": "",
          "type": "bool"
        }
      ],
      "stateMutability": "view",
      "type": "function"
    },
    {
      "inputs": [],
      "name": "publicSaleMaxMintAmountPerAddress",
      "outputs": [
        {
          "internalType": "uint256",
          "name": "",
          "type": "uint256"
        }
      ],
      "stateMutability": "view",
      "type": "function"
    },
    {
      "inputs": [
        {
          "internalType": "address",
          "name": "transferer",
          "type": "address"
        }
      ],
      "name": "removeLocalContractAllowList",
      "outputs": [],
      "stateMutability": "nonpayable",
      "type": "function"
    },
    {
      "inputs": [],
      "name": "renounceOwnership",
      "outputs": [],
      "stateMutability": "nonpayable",
      "type": "function"
    },
    {
      "inputs": [
        {
          "internalType": "bytes32",
          "name": "role",
          "type": "bytes32"
        },
        {
          "internalType": "address",
          "name": "account",
          "type": "address"
        }
      ],
      "name": "renounceRole",
      "outputs": [],
      "stateMutability": "nonpayable",
      "type": "function"
    },
    {
      "inputs": [],
      "name": "revokeOperatorFilterRegistry",
      "outputs": [],
      "stateMutability": "nonpayable",
      "type": "function"
    },
    {
      "inputs": [
        {
          "internalType": "bytes32",
          "name": "role",
          "type": "bytes32"
        },
        {
          "internalType": "address",
          "name": "account",
          "type": "address"
        }
      ],
      "name": "revokeRole",
      "outputs": [],
      "stateMutability": "nonpayable",
      "type": "function"
    },
    {
      "inputs": [
        {
          "internalType": "uint256",
          "name": "_tokenId",
          "type": "uint256"
        },
        {
          "internalType": "uint256",
          "name": "_salePrice",
          "type": "uint256"
        }
      ],
      "name": "royaltyInfo",
      "outputs": [
        {
          "internalType": "address",
          "name": "",
          "type": "address"
        },
        {
          "internalType": "uint256",
          "name": "",
          "type": "uint256"
        }
      ],
      "stateMutability": "view",
      "type": "function"
    },
    {
      "inputs": [
        {
          "internalType": "address",
          "name": "from",
          "type": "address"
        },
        {
          "internalType": "address",
          "name": "to",
          "type": "address"
        },
        {
          "internalType": "uint256",
          "name": "tokenId",
          "type": "uint256"
        }
      ],
      "name": "safeTransferFrom",
      "outputs": [],
      "stateMutability": "nonpayable",
      "type": "function"
    },
    {
      "inputs": [
        {
          "internalType": "address",
          "name": "from",
          "type": "address"
        },
        {
          "internalType": "address",
          "name": "to",
          "type": "address"
        },
        {
          "internalType": "uint256",
          "name": "tokenId",
          "type": "uint256"
        },
        {
          "internalType": "bytes",
          "name": "data",
          "type": "bytes"
        }
      ],
      "name": "safeTransferFrom",
      "outputs": [],
      "stateMutability": "nonpayable",
      "type": "function"
    },
    {
      "inputs": [],
      "name": "saleId",
      "outputs": [
        {
          "internalType": "uint256",
          "name": "",
          "type": "uint256"
        }
      ],
      "stateMutability": "view",
      "type": "function"
    },
    {
      "inputs": [],
      "name": "sbtCollection",
      "outputs": [
        {
          "internalType": "contract iSbtCollection",
          "name": "",
          "type": "address"
        }
      ],
      "stateMutability": "view",
      "type": "function"
    },
    {
      "inputs": [
        {
          "internalType": "uint256",
          "name": "_type",
          "type": "uint256"
        }
      ],
      "name": "setAllowListType",
      "outputs": [],
      "stateMutability": "nonpayable",
      "type": "function"
    },
    {
      "inputs": [
        {
          "internalType": "uint256",
          "name": "_saleId",
          "type": "uint256"
        },
        {
          "internalType": "address[]",
          "name": "addresses",
          "type": "address[]"
        },
        {
          "internalType": "uint256[]",
          "name": "saleSupplies",
          "type": "uint256[]"
        }
      ],
      "name": "setAllowlistMapping",
      "outputs": [],
      "stateMutability": "nonpayable",
      "type": "function"
    },
    {
      "inputs": [
        {
          "internalType": "string",
          "name": "_animationURI",
          "type": "string"
        }
      ],
      "name": "setAnimationURI",
      "outputs": [],
      "stateMutability": "nonpayable",
      "type": "function"
    },
    {
      "inputs": [
        {
          "internalType": "address",
          "name": "operator",
          "type": "address"
        },
        {
          "internalType": "bool",
          "name": "approved",
          "type": "bool"
        }
      ],
      "name": "setApprovalForAll",
      "outputs": [],
      "stateMutability": "nonpayable",
      "type": "function"
    },
    {
      "inputs": [
        {
          "internalType": "string",
          "name": "_newBaseExtension",
          "type": "string"
        }
      ],
      "name": "setBaseExtension",
      "outputs": [],
      "stateMutability": "nonpayable",
      "type": "function"
    },
    {
      "inputs": [
        {
          "internalType": "string",
          "name": "_newBaseURI",
          "type": "string"
        }
      ],
      "name": "setBaseURI",
      "outputs": [],
      "stateMutability": "nonpayable",
      "type": "function"
    },
    {
      "inputs": [
        {
          "internalType": "address",
          "name": "calAddress",
          "type": "address"
        }
      ],
      "name": "setCAL",
      "outputs": [],
      "stateMutability": "nonpayable",
      "type": "function"
    },
    {
      "inputs": [
        {
          "internalType": "uint256",
          "name": "level",
          "type": "uint256"
        }
      ],
      "name": "setCALLevel",
      "outputs": [],
      "stateMutability": "nonpayable",
      "type": "function"
    },
    {
      "inputs": [
        {
          "internalType": "uint256",
          "name": "_newCost",
          "type": "uint256"
        }
      ],
      "name": "setCost",
      "outputs": [],
      "stateMutability": "nonpayable",
      "type": "function"
    },
    {
      "inputs": [
        {
          "internalType": "uint256",
          "name": "_newCost",
          "type": "uint256"
        }
      ],
      "name": "setCost2",
      "outputs": [],
      "stateMutability": "nonpayable",
      "type": "function"
    },
    {
      "inputs": [
        {
          "internalType": "uint256",
          "name": "_newCost",
          "type": "uint256"
        }
      ],
      "name": "setCost3",
      "outputs": [],
      "stateMutability": "nonpayable",
      "type": "function"
    },
    {
      "inputs": [
        {
          "internalType": "address",
          "name": "_receiver",
          "type": "address"
        },
        {
          "internalType": "uint96",
          "name": "_feeNumerator",
          "type": "uint96"
        }
      ],
      "name": "setDefaultRoyalty",
      "outputs": [],
      "stateMutability": "nonpayable",
      "type": "function"
    },
    {
      "inputs": [
        {
          "internalType": "bool",
          "name": "_enableRestrict",
          "type": "bool"
        }
      ],
      "name": "setEnebleRestrict",
      "outputs": [],
      "stateMutability": "nonpayable",
      "type": "function"
    },
    {
      "inputs": [
        {
          "internalType": "string",
          "name": "_ImageURI",
          "type": "string"
        }
      ],
      "name": "setImageURI",
      "outputs": [],
      "stateMutability": "nonpayable",
      "type": "function"
    },
    {
      "inputs": [
        {
          "internalType": "address",
          "name": "_address",
          "type": "address"
        }
      ],
      "name": "setInterfaceOfTokenURI",
      "outputs": [],
      "stateMutability": "nonpayable",
      "type": "function"
    },
    {
      "inputs": [
        {
          "internalType": "bool",
          "name": "_state",
          "type": "bool"
        }
      ],
      "name": "setIsSBT",
      "outputs": [],
      "stateMutability": "nonpayable",
      "type": "function"
    },
    {
      "inputs": [
        {
          "internalType": "uint256",
          "name": "_maxMintAmountPerTransaction",
          "type": "uint256"
        }
      ],
      "name": "setMaxMintAmountPerTransaction",
      "outputs": [],
      "stateMutability": "nonpayable",
      "type": "function"
    },
    {
      "inputs": [
        {
          "internalType": "uint256",
          "name": "_maxSupply",
          "type": "uint256"
        }
      ],
      "name": "setMaxSupply",
      "outputs": [],
      "stateMutability": "nonpayable",
      "type": "function"
    },
    {
      "inputs": [
        {
          "internalType": "bytes32",
          "name": "_merkleRoot",
          "type": "bytes32"
        }
      ],
      "name": "setMerkleRoot",
      "outputs": [],
      "stateMutability": "nonpayable",
      "type": "function"
    },
    {
      "inputs": [
        {
          "internalType": "string",
          "name": "_metadataAttributes",
          "type": "string"
        }
      ],
      "name": "setMetadataAttributes",
      "outputs": [],
      "stateMutability": "nonpayable",
      "type": "function"
    },
    {
      "inputs": [
        {
          "internalType": "string",
          "name": "_metadataDescription",
          "type": "string"
        }
      ],
      "name": "setMetadataDescription",
      "outputs": [],
      "stateMutability": "nonpayable",
      "type": "function"
    },
    {
      "inputs": [
        {
          "internalType": "string",
          "name": "_metadataTitle",
          "type": "string"
        }
      ],
      "name": "setMetadataTitle",
      "outputs": [],
      "stateMutability": "nonpayable",
      "type": "function"
    },
    {
      "inputs": [
        {
          "internalType": "bool",
          "name": "_state",
          "type": "bool"
        }
      ],
      "name": "setMintCount",
      "outputs": [],
      "stateMutability": "nonpayable",
      "type": "function"
    },
    {
      "inputs": [
        {
          "internalType": "bool",
          "name": "_mintWithSBT",
          "type": "bool"
        }
      ],
      "name": "setMintWithSBT",
      "outputs": [],
      "stateMutability": "nonpayable",
      "type": "function"
    },
    {
      "inputs": [
        {
          "internalType": "bool",
          "name": "_state",
          "type": "bool"
        }
      ],
      "name": "setOnlyAllowlisted",
      "outputs": [],
      "stateMutability": "nonpayable",
      "type": "function"
    },
    {
      "inputs": [
        {
          "internalType": "bool",
          "name": "_state",
          "type": "bool"
        }
      ],
      "name": "setPause",
      "outputs": [],
      "stateMutability": "nonpayable",
      "type": "function"
    },
    {
      "inputs": [
        {
          "internalType": "uint256",
          "name": "_publicSaleMaxMintAmountPerAddress",
          "type": "uint256"
        }
      ],
      "name": "setPublicSaleMaxMintAmountPerAddress",
      "outputs": [],
      "stateMutability": "nonpayable",
      "type": "function"
    },
    {
      "inputs": [
        {
          "internalType": "uint256",
          "name": "_saleId",
          "type": "uint256"
        }
      ],
      "name": "setSaleId",
      "outputs": [],
      "stateMutability": "nonpayable",
      "type": "function"
    },
    {
      "inputs": [
        {
          "internalType": "address",
          "name": "_address",
          "type": "address"
        }
      ],
      "name": "setSbtCollection",
      "outputs": [],
      "stateMutability": "nonpayable",
      "type": "function"
    },
    {
      "inputs": [
        {
          "internalType": "uint256",
          "name": "tokenId",
          "type": "uint256"
        },
        {
          "internalType": "uint256",
          "name": "level",
          "type": "uint256"
        }
      ],
      "name": "setTokenCALLevel",
      "outputs": [],
      "stateMutability": "nonpayable",
      "type": "function"
    },
    {
      "inputs": [
        {
          "internalType": "bool",
          "name": "_useAnimationUrl",
          "type": "bool"
        }
      ],
      "name": "setUseAnimationUrl",
      "outputs": [],
      "stateMutability": "nonpayable",
      "type": "function"
    },
    {
      "inputs": [
        {
          "internalType": "bool",
          "name": "_useInterfaceMetadata",
          "type": "bool"
        }
      ],
      "name": "setUseInterfaceMetadata",
      "outputs": [],
      "stateMutability": "nonpayable",
      "type": "function"
    },
    {
      "inputs": [
        {
          "internalType": "bool",
          "name": "_useSingleMetadata",
          "type": "bool"
        }
      ],
      "name": "setUseSingleMetadata",
      "outputs": [],
      "stateMutability": "nonpayable",
      "type": "function"
    },
    {
      "inputs": [
        {
          "internalType": "uint256",
          "name": "level",
          "type": "uint256"
        }
      ],
      "name": "setWalletCALLevel",
      "outputs": [],
      "stateMutability": "nonpayable",
      "type": "function"
    },
    {
      "inputs": [
        {
          "internalType": "address",
          "name": "_withdrawAddress",
          "type": "address"
        }
      ],
      "name": "setWithdrawAddress",
      "outputs": [],
      "stateMutability": "nonpayable",
      "type": "function"
    },
    {
      "inputs": [
        {
          "internalType": "bytes4",
          "name": "interfaceId",
          "type": "bytes4"
        }
      ],
      "name": "supportsInterface",
      "outputs": [
        {
          "internalType": "bool",
          "name": "",
          "type": "bool"
        }
      ],
      "stateMutability": "view",
      "type": "function"
    },
    {
      "inputs": [],
      "name": "symbol",
      "outputs": [
        {
          "internalType": "string",
          "name": "",
          "type": "string"
        }
      ],
      "stateMutability": "view",
      "type": "function"
    },
    {
      "inputs": [
        {
          "internalType": "uint256",
          "name": "",
          "type": "uint256"
        }
      ],
      "name": "tokenCALLevel",
      "outputs": [
        {
          "internalType": "uint256",
          "name": "",
          "type": "uint256"
        }
      ],
      "stateMutability": "view",
      "type": "function"
    },
    {
      "inputs": [
        {
          "internalType": "uint256",
          "name": "tokenId",
          "type": "uint256"
        }
      ],
      "name": "tokenURI",
      "outputs": [
        {
          "internalType": "string",
          "name": "",
          "type": "string"
        }
      ],
      "stateMutability": "view",
      "type": "function"
    },
    {
      "inputs": [
        {
          "internalType": "address",
          "name": "owner",
          "type": "address"
        }
      ],
      "name": "tokensOfOwner",
      "outputs": [
        {
          "internalType": "uint256[]",
          "name": "",
          "type": "uint256[]"
        }
      ],
      "stateMutability": "view",
      "type": "function"
    },
    {
      "inputs": [],
      "name": "totalSupply",
      "outputs": [
        {
          "internalType": "uint256",
          "name": "",
          "type": "uint256"
        }
      ],
      "stateMutability": "view",
      "type": "function"
    },
    {
      "inputs": [
        {
          "internalType": "address",
          "name": "from",
          "type": "address"
        },
        {
          "internalType": "address",
          "name": "to",
          "type": "address"
        },
        {
          "internalType": "uint256",
          "name": "tokenId",
          "type": "uint256"
        }
      ],
      "name": "transferFrom",
      "outputs": [],
      "stateMutability": "nonpayable",
      "type": "function"
    },
    {
      "inputs": [
        {
          "internalType": "address",
          "name": "newOwner",
          "type": "address"
        }
      ],
      "name": "transferOwnership",
      "outputs": [],
      "stateMutability": "nonpayable",
      "type": "function"
    },
    {
      "inputs": [
        {
          "internalType": "address",
          "name": "newRegistry",
          "type": "address"
        }
      ],
      "name": "updateOperatorFilterRegistryAddress",
      "outputs": [],
      "stateMutability": "nonpayable",
      "type": "function"
    },
    {
      "inputs": [],
      "name": "useAnimationUrl",
      "outputs": [
        {
          "internalType": "bool",
          "name": "",
          "type": "bool"
        }
      ],
      "stateMutability": "view",
      "type": "function"
    },
    {
      "inputs": [],
      "name": "useInterfaceMetadata",
      "outputs": [
        {
          "internalType": "bool",
          "name": "",
          "type": "bool"
        }
      ],
      "stateMutability": "view",
      "type": "function"
    },
    {
      "inputs": [],
      "name": "useSingleMetadata",
      "outputs": [
        {
          "internalType": "bool",
          "name": "",
          "type": "bool"
        }
      ],
      "stateMutability": "view",
      "type": "function"
    },
    {
      "inputs": [
        {
          "internalType": "uint256",
          "name": "",
          "type": "uint256"
        },
        {
          "internalType": "address",
          "name": "",
          "type": "address"
        }
      ],
      "name": "userMintedAmount",
      "outputs": [
        {
          "internalType": "uint256",
          "name": "",
          "type": "uint256"
        }
      ],
      "stateMutability": "view",
      "type": "function"
    },
    {
      "inputs": [
        {
          "internalType": "address",
          "name": "",
          "type": "address"
        }
      ],
      "name": "walletCALLevel",
      "outputs": [
        {
          "internalType": "uint256",
          "name": "",
          "type": "uint256"
        }
      ],
      "stateMutability": "view",
      "type": "function"
    },
    {
      "inputs": [],
      "name": "withdraw",
      "outputs": [],
      "stateMutability": "payable",
      "type": "function"
    },
    {
      "inputs": [],
      "name": "withdrawAddress",
      "outputs": [
        {
          "internalType": "address",
          "name": "",
          "type": "address"
        }
      ],
      "stateMutability": "view",
      "type": "function"
    }
  ],
  "bytecode": "0x600f8054600160ff1991821681179092556012829055601580547388e276958970cc5e3ae439c70dba64711d941b816001600160a01b031990911617905567011c37937e080000601655670138a388a43c000060175567016345785d8a000060185560576019556064601a819055601b55601c805462ffffff1916620101011790556000601d819055601f5560228054909116909117905560c06040526005608090815264173539b7b760d91b60a052602490620000be908262001330565b506025805461ffff60a01b19169055602a805460ff19908116909155602c80549091169055348015620000f057600080fd5b50604051620073a1380380620073a1833981016040819052620001139162001419565b604080518082018252600981526848617474656e53686f60b81b6020808301919091528251808401909352600383526248545360e81b90830152600080546001600160a01b0319166daaeb6d7670e522a718067333cd4e908117909155909190733cc6cdda760b79bafa08df41ecfa224f810dceb6600182828282803b15620002a85781156200020757604051633e9f1edf60e11b81523060048201526001600160a01b038481166024830152821690637d3e3dbe906044015b600060405180830381600087803b158015620001e857600080fd5b505af1158015620001fd573d6000803e3d6000fd5b50505050620002a8565b6001600160a01b038316156200024c5760405163a0af290360e01b81523060048201526001600160a01b03848116602483015282169063a0af290390604401620001cd565b604051632210724360e11b81523060048201526001600160a01b03821690634420e48690602401600060405180830381600087803b1580156200028e57600080fd5b505af1158015620002a3573d6000803e3d6000fd5b505050505b5050506001600160a01b0384169050620002d55760405163c49d17ad60e01b815260040160405180910390fd5b505050620002f2620002ec6200050e60201b60201c565b62000512565b600562000300838262001330565b5060066200030f828262001330565b506000600855505060016014556200032960003362000564565b620003557f3a2f235c9daaf33349d300aadff2f15078a89df81bcfdd45ba11c8f816bddc6f3362000574565b62000370600080516020620073618339815191523362000574565b6200037d60008462000564565b620003a97f3a2f235c9daaf33349d300aadff2f15078a89df81bcfdd45ba11c8f816bddc6f8462000574565b620003c4600080516020620073618339815191528462000574565b620003e86040518060600160405280603b815260200162007326603b9139620005a2565b620003f46001620005cb565b80156200042757600c80546001600160a01b03191673dbaa28cbe70af04ebfb166b1a3e8f8034e5b9fc71790556200044e565b600c80546001600160a01b03191673b506d7bbe23576b8aaf22477cd9a7fdf080022111790555b6200046d731e0049783f008a0085193e00003d00cd54003c71620005ec565b6200048c734fee7b061c97c9c496b01dbce9cdb10c02f0a0be620005ec565b620004ad7388e276958970cc5e3ae439c70dba64711d941b81600162000641565b620004cf7388e276958970cc5e3ae439c70dba64711d941b816103e862000663565b620004ee7388e276958970cc5e3ae439c70dba64711d941b816200068a565b620004fa6001620006c8565b6200050582620006f7565b50505062001697565b3390565b600380546001600160a01b038381166001600160a01b0319831681179093556040519116919082907f8be0079c531659141344cd1fd0a4f28419497f9722a3daafe3b4186f6b6457e090600090a35050565b6200057082826200073b565b5050565b6000828152601360205260409020600101546200059181620007df565b6200059d83836200073b565b505050565b60008051602062007361833981519152620005bd81620007df565b60236200059d838262001330565b60008051602062007361833981519152620005e681620007df565b50601255565b6200060781600d620007ee60201b62002ea51790919060201c565b506040516001600160a01b0382169033907fbd0af1fe0a2c1c7bb340c17a284a291138979c8eeb797e176dbd1c415199af3c90600090a350565b620005708282604051806020016040528060008152506200080e60201b60201c565b600080516020620073618339815191526200067e81620007df565b6200059d8383620008a5565b60008051602062007361833981519152620006a581620007df565b50601580546001600160a01b0319166001600160a01b0392909216919091179055565b60008051602062007361833981519152620006e381620007df565b506022805460ff1916911515919091179055565b600080516020620073618339815191526200071281620007df565b50602280546001600160a01b0390921661010002610100600160a81b0319909216919091179055565b60008281526013602090815260408083206001600160a01b038516845290915290205460ff16620005705760008281526013602090815260408083206001600160a01b03851684529091529020805460ff191660011790556200079b3390565b6001600160a01b0316816001600160a01b0316837f2f8788117e7eff1d82e926ec794901d17c78024a50270940304540a733656f0d60405160405180910390a45050565b620007eb8133620009a6565b50565b600062000805836001600160a01b03841662000a38565b90505b92915050565b60006200081a60085490565b905062000828848462000a8a565b6200083860008583868662000c39565b6200089f5760405162461bcd60e51b815260206004820152603560248201526000805160206200738183398151915260448201527f31526563656976657220696d706c656d656e746572000000000000000000000060648201526084015b60405180910390fd5b50505050565b6127106001600160601b0382161115620009155760405162461bcd60e51b815260206004820152602a60248201527f455243323938313a20726f79616c7479206665652077696c6c206578636565646044820152692073616c65507269636560b01b606482015260840162000896565b6001600160a01b0382166200096d5760405162461bcd60e51b815260206004820152601960248201527f455243323938313a20696e76616c696420726563656976657200000000000000604482015260640162000896565b604080518082019091526001600160a01b039092168083526001600160601b039091166020909201829052600160a01b90910217600155565b60008281526013602090815260408083206001600160a01b038516845290915290205460ff166200057057620009e78162000ddc60201b62002eba1760201c565b620009fd83602062002ecc62000def821b17811c565b60405160200162000a1092919062001491565b60408051601f198184030181529082905262461bcd60e51b8252620008969160040162001538565b600081815260018301602052604081205462000a815750815460018181018455600084815260208082209093018490558454848252828601909352604090209190915562000808565b50600062000808565b600062000a9660085490565b90506000821162000af85760405162461bcd60e51b815260206004820152602560248201527f4552433732315073693a207175616e74697479206d7573742062652067726561604482015264074657220360dc1b606482015260840162000896565b6001600160a01b03831662000b5c5760405162461bcd60e51b815260206004820152602360248201527f4552433732315073693a206d696e7420746f20746865207a65726f206164647260448201526265737360e81b606482015260840162000896565b62000b6b600084838562000fa8565b816008600082825462000b7f919062001563565b9091555050600081815260076020908152604090912080546001600160a01b0319166001600160a01b03861617905562000bc790600490839062001052811b6200306817901c565b62000bd660008483856200107e565b805b62000be4838362001563565b8110156200089f5760405181906001600160a01b038616906000907fddf252ad1be2c89b69c2b068fc378daa952ba7f163c4a11628f55a4df523b3ef908290a48062000c308162001579565b91505062000bd8565b600062000c5a856001600160a01b03166200125860201b620030941760201c565b1562000dcf57506001835b62000c71848662001563565b81101562000dc857604051630a85bd0160e11b81526001600160a01b0387169063150b7a029062000cad9033908b908690899060040162001595565b6020604051808303816000875af192505050801562000ceb575060408051601f3d908101601f1916820190925262000ce891810190620015d4565b60015b62000d92573d80801562000d1c576040519150601f19603f3d011682016040523d82523d6000602084013e62000d21565b606091505b50805160000362000d8a5760405162461bcd60e51b815260206004820152603560248201526000805160206200738183398151915260448201527f31526563656976657220696d706c656d656e7465720000000000000000000000606482015260840162000896565b805181602001fd5b82801562000db057506001600160e01b03198116630a85bd0160e11b145b9250508062000dbf8162001579565b91505062000c65565b5062000dd3565b5060015b95945050505050565b6060620008086001600160a01b03831660145b6060600062000e0083600262001600565b62000e0d90600262001563565b6001600160401b0381111562000e275762000e276200128c565b6040519080825280601f01601f19166020018201604052801562000e52576020820181803683370190505b509050600360fc1b8160008151811062000e705762000e706200161a565b60200101906001600160f81b031916908160001a905350600f60fb1b8160018151811062000ea25762000ea26200161a565b60200101906001600160f81b031916908160001a905350600062000ec884600262001600565b62000ed590600162001563565b90505b600181111562000f57576f181899199a1a9b1b9c1cb0b131b232b360811b85600f166010811062000f0d5762000f0d6200161a565b1a60f81b82828151811062000f265762000f266200161a565b60200101906001600160f81b031916908160001a90535060049490941c9362000f4f8162001630565b905062000ed8565b508315620008055760405162461bcd60e51b815260206004820181905260248201527f537472696e67733a20686578206c656e67746820696e73756666696369656e74604482015260640162000896565b602c5460ff16158062000fc257506001600160a01b038416155b8062000fd557506001600160a01b038316155b8062000feb57506001600160a01b03831661dead145b620010395760405162461bcd60e51b815260206004820152601660248201527f7472616e736665722069732070726f6869626974656400000000000000000000604482015260640162000896565b6200089f848484846200089f60201b620018c01760201c565b600881901c600090815260209290925260409091208054600160ff1b60ff9093169290921c9091179055565b6801000000000000000081106200109457600080fd5b806001600160a01b0385161562001102576001600160a01b0385166000908152602d602052604081208054839290620010d89084906001600160401b03166200164a565b92506101000a8154816001600160401b0302191690836001600160401b0316021790555062001169565b6001600160a01b0384166000908152602d602052604090208054829190600890620011449084906801000000000000000090046001600160401b031662001674565b92506101000a8154816001600160401b0302191690836001600160401b031602179055505b6001600160a01b03841615620011d6576001600160a01b0384166000908152602d602052604081208054839290620011ac9084906001600160401b031662001674565b92506101000a8154816001600160401b0302191690836001600160401b0316021790555062001238565b6001600160a01b0385166000908152602d60205260409020805482919060109062001213908490600160801b90046001600160401b031662001674565b92506101000a8154816001600160401b0302191690836001600160401b031602179055505b62001251858585856200126760201b620030a31760201c565b5050505050565b6001600160a01b03163b151590565b6001600160a01b038416156200089f576000828152601060205260408120556200089f565b634e487b7160e01b600052604160045260246000fd5b600181811c90821680620012b757607f821691505b602082108103620012d857634e487b7160e01b600052602260045260246000fd5b50919050565b601f8211156200059d57600081815260208120601f850160051c81016020861015620013075750805b601f850160051c820191505b81811015620013285782815560010162001313565b505050505050565b81516001600160401b038111156200134c576200134c6200128c565b62001364816200135d8454620012a2565b84620012de565b602080601f8311600181146200139c5760008415620013835750858301515b600019600386901b1c1916600185901b17855562001328565b600085815260208120601f198616915b82811015620013cd57888601518255948401946001909101908401620013ac565b5085821015620013ec5787850151600019600388901b60f8161c191681555b5050505050600190811b01905550565b80516001600160a01b03811681146200141457600080fd5b919050565b6000806000606084860312156200142f57600080fd5b6200143a84620013fc565b92506200144a60208501620013fc565b9150604084015180151581146200146057600080fd5b809150509250925092565b60005b83811015620014885781810151838201526020016200146e565b50506000910152565b7f416363657373436f6e74726f6c3a206163636f756e7420000000000000000000815260008351620014cb8160178501602088016200146b565b7001034b99036b4b9b9b4b733903937b6329607d1b6017918401918201528351620014fe8160288401602088016200146b565b01602801949350505050565b60008151808452620015248160208601602086016200146b565b601f01601f19169290920160200192915050565b6020815260006200080560208301846200150a565b634e487b7160e01b600052601160045260246000fd5b808201808211156200080857620008086200154d565b6000600182016200158e576200158e6200154d565b5060010190565b6001600160a01b0385811682528416602082015260408101839052608060608201819052600090620015ca908301846200150a565b9695505050505050565b600060208284031215620015e757600080fd5b81516001600160e01b0319811681146200080557600080fd5b80820281158282048414176200080857620008086200154d565b634e487b7160e01b600052603260045260246000fd5b6000816200164257620016426200154d565b506000190190565b6001600160401b038281168282160390808211156200166d576200166d6200154d565b5092915050565b6001600160401b038181168382160190808211156200166d576200166d6200154d565b615c7f80620016a76000396000f3fe6080604052600436106106d05760003560e01c80636f8b44b01161037a578063b51bbbdf116101d1578063d6dfad7611610102578063ecba222a116100a0578063f48824db1161007a578063f48824db14611459578063f58f9c661461148f578063fcd1aac9146114af578063ff768212146114cf57600080fd5b8063ecba222a146113f8578063f138abfa14611419578063f2fde38b1461143957600080fd5b8063da3ef23f116100dc578063da3ef23f14611385578063ddecc4d0146113a5578063e6d37b88146113c5578063e985e9c5146113d857600080fd5b8063d6dfad761461132a578063d728312a1461134b578063d96506f91461136b57600080fd5b8063c5ac58e11161016f578063c87b56dd11610149578063c87b56dd14611290578063d04f32d2146112b0578063d547741f146112f4578063d5abeb011461131457600080fd5b8063c5ac58e114611245578063c668286214611265578063c84c03871461127a57600080fd5b8063b8d1e532116101ab578063b8d1e532146111ce578063ba6269c6146111ee578063bbb897441461120f578063bedb86fb1461122557600080fd5b8063b51bbbdf14611179578063b5f94d061461118e578063b88d4fde146111ae57600080fd5b8063942c9273116102ab578063a35c23ad11610249578063a9e2acd511610223578063a9e2acd5146110f7578063aabb9a8614611117578063b0ccc31e1461112c578063b31391cb1461114c57600080fd5b8063a35c23ad1461109f578063a63b9a38146110cc578063a72193b6146110e157600080fd5b8063981eb34411610285578063981eb344146110345780639a1b288514611054578063a217fddf1461106a578063a22cb4651461107f57600080fd5b8063942c927314610fea57806395d89b4114610fff5780639659867e1461101457600080fd5b80637ee3b2ac11610318578063877984cb116102f2578063877984cb14610f4f5780638da5cb5b14610f6f5780638e73cf0014610f8457806391d1485414610fa457600080fd5b80637ee3b2ac14610eed578063831e60de14610f0d5780638462151c14610f2257600080fd5b806372b44d711161035457806372b44d7114610e7757806373ef64fd14610e975780637c3dc17314610ead5780637cb6475914610ecd57600080fd5b80636f8b44b014610e2257806370a0823114610e42578063715018a614610e6257600080fd5b80632eb4a7ab1161052e5780634cb110fc1161045f5780635ef9432a116103fd578063674c02aa116103d7578063674c02aa14610dae578063694aaf5b14610dcd5780636b8ee0ec14610ded5780636c0360eb14610e0d57600080fd5b80635ef9432a14610d635780636352211e14610d785780636503b88e14610d9857600080fd5b806355cda8981161043957806355cda89814610ce457806355f804b314610d09578063599487c314610d295780635c975abb14610d4957600080fd5b80634cb110fc14610c8e5780634e6bf20414610cae5780634f3db34614610cce57600080fd5b80633ccfd60b116104cc57806344a0d68a116104a657806344a0d68a14610bd457806347705cbc14610bf4578063499a15d414610c365780634c45cda214610c6e57600080fd5b80633ccfd60b14610b925780633cf40df314610b9a57806342842e0e14610bb457600080fd5b806336568abe1161050857806336568abe14610b1d57806336e3c8ea14610b3d578063396e8f5314610b525780633ab1a49414610b7257600080fd5b80632eb4a7ab14610aa65780632f2ff15d14610abc5780633511cd5414610adc57600080fd5b8063135d088d116106085780632398f843116105a6578063248a9ca311610580578063248a9ca3146109f5578063279a669e14610a255780632a0acc6a14610a455780632a55205a14610a6757600080fd5b80632398f8431461098857806323b872dd146109b557806323c03085146109d557600080fd5b806317dc10c4116105e257806317dc10c4146108ff57806318160ddd1461091f5780631950c2fc146109345780631e0fbfa21461095457600080fd5b8063135d088d146108b457806313faede6146108c95780631581b600146108df57600080fd5b806304787ca2116106755780630730baf01161064f5780630730baf01461081c578063081812fc1461083c578063095ea7b3146108745780630f4345e21461089457600080fd5b806304787ca2146107cd57806306fdde03146107ed578063072653891461080257600080fd5b806301340a32116106b157806301340a321461074957806301ffc9a71461076b578063025e332e1461078b57806304634d8d146107ad57600080fd5b80623eb1e2146106d55780623f332f146107045780629a9b7b14610726575b600080fd5b3480156106e157600080fd5b50602a546106ef9060ff1681565b60405190151581526020015b60405180910390f35b34801561071057600080fd5b506107196114ef565b6040516106fb9190614e1e565b34801561073257600080fd5b5061073b6114fe565b6040519081526020016106fb565b34801561075557600080fd5b5061075e611515565b6040516106fb9190614ebb565b34801561077757600080fd5b506106ef610786366004614ee4565b6115a3565b34801561079757600080fd5b506107ab6107a6366004614f18565b6115d2565b005b3480156107b957600080fd5b506107ab6107c8366004614f33565b61160d565b3480156107d957600080fd5b506107ab6107e8366004615028565b611634565b3480156107f957600080fd5b5061075e611658565b34801561080e57600080fd5b50600f546106ef9060ff1681565b34801561082857600080fd5b506107ab61083736600461507f565b6116ea565b34801561084857600080fd5b5061085c61085736600461509c565b611716565b6040516001600160a01b0390911681526020016106fb565b34801561088057600080fd5b506107ab61088f3660046150b5565b6117a6565b3480156108a057600080fd5b506107ab6108af36600461509c565b61180d565b3480156108c057600080fd5b5061075e61182b565b3480156108d557600080fd5b5061073b60165481565b3480156108eb57600080fd5b5060155461085c906001600160a01b031681565b34801561090b57600080fd5b506107ab61091a36600461507f565b611838565b34801561092b57600080fd5b5061073b61186b565b34801561094057600080fd5b506107ab61094f36600461509c565b61187d565b34801561096057600080fd5b5061073b7f3a2f235c9daaf33349d300aadff2f15078a89df81bcfdd45ba11c8f816bddc6f81565b34801561099457600080fd5b5061073b6109a3366004614f18565b60116020526000908152604090205481565b3480156109c157600080fd5b506107ab6109d03660046150df565b61189b565b3480156109e157600080fd5b506107ab6109f0366004614f18565b6118c6565b348015610a0157600080fd5b5061073b610a1036600461509c565b60009081526013602052604090206001015490565b348015610a3157600080fd5b506107ab610a403660046151ea565b611901565b348015610a5157600080fd5b5061073b600080516020615b2a83398151915281565b348015610a7357600080fd5b50610a87610a82366004615253565b611b45565b604080516001600160a01b0390931683526020830191909152016106fb565b348015610ab257600080fd5b5061073b601e5481565b348015610ac857600080fd5b506107ab610ad7366004615275565b611c02565b348015610ae857600080fd5b5061073b610af7366004615275565b6000918252602080805260408084206001600160a01b0393909316845291905290205490565b348015610b2957600080fd5b506107ab610b38366004615275565b611c27565b348015610b4957600080fd5b506107ab611caf565b348015610b5e57600080fd5b50600c5461085c906001600160a01b031681565b348015610b7e57600080fd5b506107ab610b8d366004614f18565b611cd0565b6107ab611d0b565b348015610ba657600080fd5b50602c546106ef9060ff1681565b348015610bc057600080fd5b506107ab610bcf3660046150df565b611d83565b348015610be057600080fd5b506107ab610bef36600461509c565b611da8565b348015610c0057600080fd5b5061073b610c0f366004614f18565b601f546000908152602080805260408083206001600160a01b039094168352929052205490565b348015610c4257600080fd5b5061073b610c51366004615275565b602160209081526000928352604080842090915290825290205481565b348015610c7a57600080fd5b506107ab610c8936600461507f565b611dc6565b348015610c9a57600080fd5b506107ab610ca936600461507f565b611df2565b348015610cba57600080fd5b506107ab610cc93660046152a1565b611e1e565b348015610cda57600080fd5b5061073b60125481565b348015610cf057600080fd5b5060225461085c9061010090046001600160a01b031681565b348015610d1557600080fd5b506107ab610d24366004615028565b611ed0565b348015610d3557600080fd5b506107ab610d44366004615028565b611ef4565b348015610d5557600080fd5b50601c546106ef9060ff1681565b348015610d6f57600080fd5b506107ab611f18565b348015610d8457600080fd5b5061085c610d9336600461509c565b611fc9565b348015610da457600080fd5b5061073b60185481565b348015610dba57600080fd5b50601c546106ef90610100900460ff1681565b348015610dd957600080fd5b506107ab610de836600461509c565b611fdd565b348015610df957600080fd5b506107ab610e0836600461507f565b611ffb565b348015610e1957600080fd5b5061075e612032565b348015610e2e57600080fd5b506107ab610e3d36600461509c565b61203f565b348015610e4e57600080fd5b5061073b610e5d366004614f18565b61205d565b348015610e6e57600080fd5b506107ab6120f1565b348015610e8357600080fd5b506107ab610e92366004614f18565b612105565b348015610ea357600080fd5b5061073b601b5481565b348015610eb957600080fd5b506107ab610ec8366004615253565b612126565b348015610ed957600080fd5b506107ab610ee836600461509c565b6121b6565b348015610ef957600080fd5b506107ab610f0836600461509c565b6121d4565b348015610f1957600080fd5b5060165461073b565b348015610f2e57600080fd5b50610f42610f3d366004614f18565b61224b565b6040516106fb9190615362565b348015610f5b57600080fd5b5060255461085c906001600160a01b031681565b348015610f7b57600080fd5b5061085c612312565b348015610f9057600080fd5b506107ab610f9f36600461507f565b612326565b348015610fb057600080fd5b506106ef610fbf366004615275565b60009182526013602090815260408084206001600160a01b0393909316845291905290205460ff1690565b348015610ff657600080fd5b5061075e61235b565b34801561100b57600080fd5b5061075e612368565b34801561102057600080fd5b50601c546106ef9062010000900460ff1681565b34801561104057600080fd5b506107ab61104f366004615028565b612377565b34801561106057600080fd5b5061073b60175481565b34801561107657600080fd5b5061073b600081565b34801561108b57600080fd5b506107ab61109a36600461539a565b61239b565b3480156110ab57600080fd5b506107ab6110ba36600461509c565b33600090815260116020526040902055565b3480156110d857600080fd5b506107ab61240b565b3480156110ed57600080fd5b5061073b601d5481565b34801561110357600080fd5b506107ab61111236600461509c565b61242c565b34801561112357600080fd5b5061075e61244a565b34801561113857600080fd5b5060005461085c906001600160a01b031681565b34801561115857600080fd5b5061073b61116736600461509c565b60106020526000908152604090205481565b34801561118557600080fd5b5061075e612457565b34801561119a57600080fd5b506107ab6111a936600461509c565b612464565b3480156111ba57600080fd5b506107ab6111c93660046153c6565b612482565b3480156111da57600080fd5b506107ab6111e9366004614f18565b6124a8565b3480156111fa57600080fd5b506025546106ef90600160a01b900460ff1681565b34801561121b57600080fd5b5061073b601a5481565b34801561123157600080fd5b506107ab61124036600461507f565b612560565b34801561125157600080fd5b506107ab611260366004615028565b61258c565b34801561127157600080fd5b5061075e6125b0565b34801561128657600080fd5b5061073b601f5481565b34801561129c57600080fd5b5061075e6112ab36600461509c565b6125bd565b3480156112bc57600080fd5b5061073b6112cb366004614f18565b601f5460009081526021602090815260408083206001600160a01b039094168352929052205490565b34801561130057600080fd5b506107ab61130f366004615275565b61271c565b34801561132057600080fd5b5061073b60195481565b34801561133657600080fd5b506025546106ef90600160a81b900460ff1681565b34801561135757600080fd5b506107ab61136636600461509c565b612741565b34801561137757600080fd5b506022546106ef9060ff1681565b34801561139157600080fd5b506107ab6113a0366004615028565b61275f565b3480156113b157600080fd5b506107ab6113c0366004615028565b612783565b6107ab6113d3366004615442565b6127a7565b3480156113e457600080fd5b506106ef6113f3366004615495565b612d0c565b34801561140457600080fd5b506000546106ef90600160a01b900460ff1681565b34801561142557600080fd5b506107ab61143436600461507f565b612d5a565b34801561144557600080fd5b506107ab611454366004614f18565b612d91565b34801561146557600080fd5b5061073b611474366004615275565b60208080526000928352604080842090915290825290205481565b34801561149b57600080fd5b506107ab6114aa366004614f18565b612e0a565b3480156114bb57600080fd5b506107ab6114ca36600461507f565b612e58565b3480156114db57600080fd5b506107ab6114ea366004614f18565b612e84565b60606114f96130c6565b905090565b6000600161150b60085490565b6114f991906154d5565b60298054611522906154e8565b80601f016020809104026020016040519081016040528092919081815260200182805461154e906154e8565b801561159b5780601f106115705761010080835404028352916020019161159b565b820191906000526020600020905b81548152906001019060200180831161157e57829003601f168201915b505050505081565b60006115ae826130d2565b806115bd57506115bd82613107565b806115cc57506115cc82613128565b92915050565b600080516020615b2a8339815191526115ea8161314d565b600c80546001600160a01b0319166001600160a01b0384161790555050565b5050565b600080516020615b2a8339815191526116258161314d565b61162f8383613157565b505050565b600080516020615b2a83398151915261164c8161314d565b602661162f8382615568565b606060058054611667906154e8565b80601f0160208091040260200160405190810160405280929190818152602001828054611693906154e8565b80156116e05780601f106116b5576101008083540402835291602001916116e0565b820191906000526020600020905b8154815290600101906020018083116116c357829003601f168201915b5050505050905090565b600080516020615b2a8339815191526117028161314d565b50600f805460ff1916911515919091179055565b60006117218261325e565b61178a5760405162461bcd60e51b815260206004820152602f60248201527f4552433732315073693a20617070726f76656420717565727920666f72206e6f60448201526e3732bc34b9ba32b73a103a37b5b2b760891b60648201526084015b60405180910390fd5b506000908152600960205260409020546001600160a01b031690565b816117b081613293565b602c5460ff16156118035760405162461bcd60e51b815260206004820152601560248201527f617070726f76652069732070726f6869626974656400000000000000000000006044820152606401611781565b61162f8383613355565b600080516020615b2a8339815191526118258161314d565b50601255565b60268054611522906154e8565b600080516020615b2a8339815191526118508161314d565b50601c80549115156101000261ff0019909216919091179055565b6000611875613369565b61150b6133cb565b600080516020615b2a8339815191526118958161314d565b50601755565b826001600160a01b03811633146118b5576118b533613293565b6118c08484846133db565b50505050565b600080516020615b2a8339815191526118de8161314d565b50602580546001600160a01b0319166001600160a01b0392909216919091179055565b3360009081527f6a92fe92e779e377491b4e1e361efb5f25c187b5237c18b99c1f537469c302e4602052604090205460ff1661197f5760405162461bcd60e51b815260206004820152601b60248201527f43616c6c6572206973206e6f742061206169722064726f7070657200000000006044820152606401611781565b805182146119cf5760405162461bcd60e51b815260206004820152601b60248201527f4172726179206c656e677468732061726520646966666572656e7400000000006044820152606401611781565b6000805b8251811015611a15578281815181106119ee576119ee615628565b602002602001015182611a01919061563e565b915080611a0d81615651565b9150506119d3565b5080600010611a665760405162461bcd60e51b815260206004820152601b60248201527f6e65656420746f206d696e74206174206c656173742031204e465400000000006044820152606401611781565b601954816001611a7560085490565b611a7f91906154d5565b611a89919061563e565b1115611ad75760405162461bcd60e51b815260206004820152601660248201527f6d6178204e4654206c696d6974206578636565646564000000000000000000006044820152606401611781565b60005b8251811015611b3e57611b2c858583818110611af857611af8615628565b9050602002016020810190611b0d9190614f18565b848381518110611b1f57611b1f615628565b6020026020010151613459565b80611b3681615651565b915050611ada565b5050505050565b60008281526002602090815260408083208151808301909252546001600160a01b038116808352600160a01b9091046bffffffffffffffffffffffff16928201929092528291611bc45750604080518082019091526001546001600160a01b0381168252600160a01b90046bffffffffffffffffffffffff1660208201525b602081015160009061271090611be8906bffffffffffffffffffffffff168761566a565b611bf29190615681565b91519350909150505b9250929050565b600082815260136020526040902060010154611c1d8161314d565b61162f8383613473565b6001600160a01b0381163314611ca55760405162461bcd60e51b815260206004820152602f60248201527f416363657373436f6e74726f6c3a2063616e206f6e6c792072656e6f756e636560448201527f20726f6c657320666f722073656c6600000000000000000000000000000000006064820152608401611781565b6116098282613515565b600080516020615b2a833981519152611cc78161314d565b50601754601655565b600080516020615b2a833981519152611ce88161314d565b50601580546001600160a01b0319166001600160a01b0392909216919091179055565b600080516020615b2a833981519152611d238161314d565b6015546040516000916001600160a01b03169047908381818185875af1925050503d8060008114611d70576040519150601f19603f3d011682016040523d82523d6000602084013e611d75565b606091505b505090508061160957600080fd5b826001600160a01b0381163314611d9d57611d9d33613293565b6118c0848484613598565b600080516020615b2a833981519152611dc08161314d565b50601655565b600080516020615b2a833981519152611dde8161314d565b50602a805460ff1916911515919091179055565b600080516020615b2a833981519152611e0a8161314d565b506022805460ff1916911515919091179055565b600080516020615b2a833981519152611e368161314d565b8151835114611e4457600080fd5b60005b8351811015611b3e57828181518110611e6257611e62615628565b6020026020010151602160008781526020019081526020016000206000868481518110611e9157611e91615628565b60200260200101516001600160a01b03166001600160a01b03168152602001908152602001600020819055508080611ec890615651565b915050611e47565b600080516020615b2a833981519152611ee88161314d565b602361162f8382615568565b600080516020615b2a833981519152611f0c8161314d565b602861162f8382615568565b611f20612312565b6001600160a01b0316336001600160a01b031614611f5157604051635fc483c560e01b815260040160405180910390fd5b600054600160a01b900460ff1615611f7c57604051631551a48f60e11b815260040160405180910390fd5b6000805474ffffffffffffffffffffffffffffffffffffffffff1916600160a01b1781556040517f51e2d870cc2e10853e38dc06fcdae46ad3c3f588f326608803dac6204541ad169190a1565b600080611fd5836135b3565b509392505050565b600080516020615b2a833981519152611ff58161314d565b50601855565b600080516020615b2a8339815191526120138161314d565b5060258054911515600160a81b0260ff60a81b19909216919091179055565b60238054611522906154e8565b600080516020615b2a8339815191526120578161314d565b50601955565b60006001600160a01b0382166120cb5760405162461bcd60e51b815260206004820152602d60248201527f4552433732315073693a2062616c616e636520717565727920666f722074686560448201526c207a65726f206164647265737360981b6064820152608401611781565b506001600160a01b03166000908152602d602052604090205467ffffffffffffffff1690565b6120f961364a565b61210360006136a9565b565b600080516020615b2a83398151915261211d8161314d565b611609826136fb565b8161213081611fc9565b6001600160a01b0316336001600160a01b0316146121a35760405162461bcd60e51b815260206004820152602a60248201527f5265737472696374417070726f76653a206f7065726174696f6e206973206f6e604482015269363c903437b63232b91760b11b6064820152608401611781565b5060009182526010602052604090912055565b600080516020615b2a8339815191526121ce8161314d565b50601e55565b600080516020615b2a8339815191526121ec8161314d565b8115806121f95750816001145b6122455760405162461bcd60e51b815260206004820152601560248201527f416c6c6f77206c6973742074797065206572726f7200000000000000000000006044820152606401611781565b50601d55565b60606000806122598461205d565b905060008167ffffffffffffffff81111561227657612276614f7b565b60405190808252806020026020018201604052801561229f578160200160208202803683370190505b50905060005b828414612309576122b58161325e565b1561230157856001600160a01b03166122cd82611fc9565b6001600160a01b03160361230157808285806001019650815181106122f4576122f4615628565b6020026020010181815250505b6001016122a5565b50949350505050565b60006114f96003546001600160a01b031690565b600080516020615b2a83398151915261233e8161314d565b50601c8054911515620100000262ff000019909216919091179055565b60288054611522906154e8565b606060068054611667906154e8565b600080516020615b2a83398151915261238f8161314d565b602761162f8382615568565b816123a581613293565b602c5460ff1615806123b5575081155b6124015760405162461bcd60e51b815260206004820152601f60248201527f736574417070726f76616c466f72416c6c2069732070726f68696269746564006044820152606401611781565b61162f8383613740565b600080516020615b2a8339815191526124238161314d565b50601854601655565b600080516020615b2a8339815191526124448161314d565b50601a55565b60278054611522906154e8565b602b8054611522906154e8565b600080516020615b2a83398151915261247c8161314d565b50601b55565b836001600160a01b038116331461249c5761249c33613293565b611b3e858585856137be565b6124b0612312565b6001600160a01b0316336001600160a01b0316146124e157604051635fc483c560e01b815260040160405180910390fd5b600054600160a01b900460ff161561250c57604051631551a48f60e11b815260040160405180910390fd5b600080546001600160a01b0319166001600160a01b0383169081179091556040519081527f9f513fe86dc42fdbac355fa4d9b1d5be7b5e6cd2df67e30db8003766568de4769060200160405180910390a150565b600080516020615b2a8339815191526125788161314d565b50601c805460ff1916911515919091179055565b600080516020615b2a8339815191526125a48161314d565b602b61162f8382615568565b60248054611522906154e8565b602554606090600160a01b900460ff1615156001036126475760255460405163c87b56dd60e01b8152600481018490526001600160a01b039091169063c87b56dd90602401600060405180830381865afa15801561261f573d6000803e3d6000fd5b505050506040513d6000823e601f3d908101601f191682016040526115cc91908101906156a3565b602554600160a81b900460ff16151560010361270057602a546126da9060279060289060269060ff16151560011461268e57604051806020016040528060008152506126b0565b602b6040516020016126a09190615784565b6040516020818303038152906040525b60296040516020016126c69594939291906157c8565b60405160208183030381529060405261383d565b6040516020016126ea91906158d8565b6040516020818303038152906040529050919050565b612709826139a2565b60246040516020016126ea92919061591d565b6000828152601360205260409020600101546127378161314d565b61162f8383613515565b600080516020615b2a8339815191526127598161314d565b50601f55565b600080516020615b2a8339815191526127778161314d565b602461162f8382615568565b600080516020615b2a83398151915261279b8161314d565b602961162f8382615568565b3233146127f65760405162461bcd60e51b815260206004820152601f60248201527f5468652063616c6c657220697320616e6f7468657220636f6e74726163742e006044820152606401611781565b601c5460ff16156128495760405162461bcd60e51b815260206004820152601660248201527f74686520636f6e747261637420697320706175736564000000000000000000006044820152606401611781565b836000106128995760405162461bcd60e51b815260206004820152601b60248201527f6e65656420746f206d696e74206174206c656173742031204e465400000000006044820152606401611781565b601a548411156128f75760405162461bcd60e51b8152602060048201526024808201527f6d6178206d696e7420616d6f756e74207065722073657373696f6e20657863656044820152631959195960e21b6064820152608401611781565b60195484600161290660085490565b61291091906154d5565b61291a919061563e565b11156129685760405162461bcd60e51b815260206004820152601660248201527f6d6178204e4654206c696d6974206578636565646564000000000000000000006044820152606401611781565b3484601654612977919061566a565b11156129c55760405162461bcd60e51b815260206004820152601260248201527f696e73756666696369656e742066756e647300000000000000000000000000006044820152606401611781565b601c54600090610100900460ff161515600103612b5557601d54600003612abc576040516bffffffffffffffffffffffff193360601b16602082015260348101859052600090605401604051602081830303815290604052805190602001209050612a6784848080602002602001604051908101604052809392919081815260200183836020028082843760009201919091525050601e549150849050613a67565b612ab35760405162461bcd60e51b815260206004820152601760248201527f75736572206973206e6f7420616c6c6f776c69737465640000000000000000006044820152606401611781565b84915050612b5a565b601d54600103612b5057601f5460009081526021602090815260408083203384529091528120549003612b315760405162461bcd60e51b815260206004820152601760248201527f75736572206973206e6f7420616c6c6f776c69737465640000000000000000006044820152606401611781565b50601f5460009081526021602090815260408083203384529091529020545b612b5a565b50601b545b601c5462010000900460ff161515600103612c1357601f54600090815260208080526040808320338452909152902054612b9490826154d5565b851115612be35760405162461bcd60e51b815260206004820152601c60248201527f6d6178204e4654207065722061646472657373206578636565646564000000006044820152606401611781565b601f5460009081526020808052604080832033845290915281208054879290612c0d90849061563e565b90915550505b60225460ff161515600103612d02576022546040516370a0823160e01b81523360048201526101009091046001600160a01b0316906370a0823190602401602060405180830381865afa158015612c6e573d6000803e3d6000fd5b505050506040513d601f19601f82011682018060405250810190612c92919061593b565b600003612d025760225460405163133f311360e31b8152336004820152600160248201526101009091046001600160a01b0316906399f9889890604401600060405180830381600087803b158015612ce957600080fd5b505af1158015612cfd573d6000803e3d6000fd5b505050505b611b3e3386613459565b6000612d188383613a7d565b1515600003612d29575060006115cc565b6001600160a01b038084166000908152600a602090815260408083209386168352929052205460ff165b9392505050565b600080516020615b2a833981519152612d728161314d565b5060258054911515600160a01b0260ff60a01b19909216919091179055565b612d9961364a565b6001600160a01b038116612dfe5760405162461bcd60e51b815260206004820152602660248201527f4f776e61626c653a206e6577206f776e657220697320746865207a65726f206160448201526564647265737360d01b6064820152608401611781565b612e07816136a9565b50565b600080516020615b2a833981519152612e228161314d565b50602280546001600160a01b039092166101000274ffffffffffffffffffffffffffffffffffffffff0019909216919091179055565b600080516020615b2a833981519152612e708161314d565b50602c805460ff1916911515919091179055565b600080516020615b2a833981519152612e9c8161314d565b61160982613a9d565b6000612d53836001600160a01b038416613ae2565b60606115cc6001600160a01b03831660145b60606000612edb83600261566a565b612ee690600261563e565b67ffffffffffffffff811115612efe57612efe614f7b565b6040519080825280601f01601f191660200182016040528015612f28576020820181803683370190505b509050600360fc1b81600081518110612f4357612f43615628565b60200101906001600160f81b031916908160001a905350600f60fb1b81600181518110612f7257612f72615628565b60200101906001600160f81b031916908160001a9053506000612f9684600261566a565b612fa190600161563e565b90505b6001811115613019576f181899199a1a9b1b9c1cb0b131b232b360811b85600f1660108110612fd557612fd5615628565b1a60f81b828281518110612feb57612feb615628565b60200101906001600160f81b031916908160001a90535060049490941c9361301281615954565b9050612fa4565b508315612d535760405162461bcd60e51b815260206004820181905260248201527f537472696e67733a20686578206c656e67746820696e73756666696369656e746044820152606401611781565b600881901c600090815260209290925260409091208054600160ff1b60ff9093169290921c9091179055565b6001600160a01b03163b151590565b6001600160a01b038416156118c0576000828152601060205260408120556118c0565b60606114f9600d613b31565b60006001600160e01b0319821663152a902d60e11b14806115cc57506301ffc9a760e01b6001600160e01b03198316146115cc565b60006001600160e01b03198216637965db0b60e01b14806115cc57506115cc825b60006001600160e01b03198216630101c11560e71b14806115cc57506115cc82613b3e565b612e078133613b7e565b6127106bffffffffffffffffffffffff821611156131ca5760405162461bcd60e51b815260206004820152602a60248201527f455243323938313a20726f79616c7479206665652077696c6c206578636565646044820152692073616c65507269636560b01b6064820152608401611781565b6001600160a01b0382166132205760405162461bcd60e51b815260206004820152601960248201527f455243323938313a20696e76616c6964207265636569766572000000000000006044820152606401611781565b604080518082019091526001600160a01b039092168083526bffffffffffffffffffffffff9091166020909201829052600160a01b90910217600155565b600881901c6000908152600b6020526040812054600160ff1b60ff84161c161561328a57506000919050565b6115cc82613bf3565b6000546001600160a01b031680158015906132b857506000816001600160a01b03163b115b1561160957604051633185c44d60e21b81523060048201526001600160a01b03838116602483015282169063c617113490604401602060405180830381865afa158015613309573d6000803e3d6000fd5b505050506040513d601f19601f8201168201806040525081019061332d919061596b565b61160957604051633b79c77360e21b81526001600160a01b0383166004820152602401611781565b61335f8282613c0f565b6116098282613c8a565b600880546000918291829190613381911c600161563e565b9050815b818110156133c5576000818152600b60205260409020546133a581613d9c565b6133af908661563e565b94505080806133bd90615651565b915050613385565b50505090565b6000806008546114f991906154d5565b6133e53382613dbb565b61344e5760405162461bcd60e51b815260206004820152603460248201527f4552433732315073693a207472616e736665722063616c6c6572206973206e6f6044820152731d081bdddb995c881b9bdc88185c1c1c9bdd995960621b6064820152608401611781565b61162f838383613e80565b611609828260405180602001604052806000815250614087565b60008281526013602090815260408083206001600160a01b038516845290915290205460ff166116095760008281526013602090815260408083206001600160a01b03851684529091529020805460ff191660011790556134d13390565b6001600160a01b0316816001600160a01b0316837f2f8788117e7eff1d82e926ec794901d17c78024a50270940304540a733656f0d60405160405180910390a45050565b60008281526013602090815260408083206001600160a01b038516845290915290205460ff16156116095760008281526013602090815260408083206001600160a01b0385168085529252808320805460ff1916905551339285917ff6391f5c32d9c69d2a47ea670b442974b53935d1edc7fd64eb21e047a839171b9190a45050565b61162f83838360405180602001604052806000815250612482565b6000806135bf8361325e565b6136205760405162461bcd60e51b815260206004820152602c60248201527f4552433732315073693a206f776e657220717565727920666f72206e6f6e657860448201526b34b9ba32b73a103a37b5b2b760a11b6064820152608401611781565b61362983614116565b6000818152600760205260409020546001600160a01b031694909350915050565b33613653612312565b6001600160a01b0316146121035760405162461bcd60e51b815260206004820181905260248201527f4f776e61626c653a2063616c6c6572206973206e6f7420746865206f776e65726044820152606401611781565b600380546001600160a01b038381166001600160a01b0319831681179093556040519116919082907f8be0079c531659141344cd1fd0a4f28419497f9722a3daafe3b4186f6b6457e090600090a35050565b613706600d82614123565b506040516001600160a01b0382169033907f3b01c97343869ca2757fcc37cdb8f71683b0a7aed858e3755f4529a1db85729290600090a350565b61374982614138565b80613752575080155b6137b45760405162461bcd60e51b815260206004820152602d60248201527f5265737472696374417070726f76653a2043616e206e6f7420617070726f766560448201526c103637b1b5b2b2103a37b5b2b760991b6064820152608401611781565b6116098282614144565b6137c83383613dbb565b6138315760405162461bcd60e51b815260206004820152603460248201527f4552433732315073693a207472616e736665722063616c6c6572206973206e6f6044820152731d081bdddb995c881b9bdc88185c1c1c9bdd995960621b6064820152608401611781565b6118c084848484614208565b6060815160000361385c57505060408051602081019091526000815290565b6000604051806060016040528060408152602001615aea604091399050600060038451600261388b919061563e565b6138959190615681565b6138a090600461566a565b905060006138af82602061563e565b67ffffffffffffffff8111156138c7576138c7614f7b565b6040519080825280601f01601f1916602001820160405280156138f1576020820181803683370190505b509050818152600183018586518101602084015b8183101561395d576003830192508251603f8160121c168501518253600182019150603f81600c1c168501518253600182019150603f8160061c168501518253600182019150603f8116850151825350600101613905565b600389510660018114613977576002811461398857613994565b613d3d60f01b600119830152613994565b603d60f81b6000198301525b509398975050505050505050565b60606139ad8261325e565b613a0c5760405162461bcd60e51b815260206004820152602a60248201527f4552433732315073693a2055524920717565727920666f72206e6f6e657869736044820152693a32b73a103a37b5b2b760b11b6064820152608401611781565b6000613a16614221565b90506000815111613a365760405180602001604052806000815250612d53565b80613a4084614230565b604051602001613a51929190615988565b6040516020818303038152906040529392505050565b600082613a7485846142c3565b14949350505050565b600080613a8984614308565b9050613a95838261434a565b949350505050565b613aa8600d82612ea5565b506040516001600160a01b0382169033907fbd0af1fe0a2c1c7bb340c17a284a291138979c8eeb797e176dbd1c415199af3c90600090a350565b6000818152600183016020526040812054613b29575081546001818101845560008481526020808220909301849055845484825282860190935260409020919091556115cc565b5060006115cc565b60606000612d53836143e3565b60006001600160e01b031982166380ac58cd60e01b1480613b6f57506001600160e01b03198216635b5e139f60e01b145b806115cc57506115cc826130d2565b60008281526013602090815260408083206001600160a01b038516845290915290205460ff1661160957613bb181612eba565b613bbc836020612ecc565b604051602001613bcd9291906159b7565b60408051601f198184030181529082905262461bcd60e51b825261178191600401614ebb565b6000613bfe60085490565b821080156115cc5750600192915050565b6001600160a01b0382161561160957613c28818361443f565b6116095760405162461bcd60e51b815260206004820152602d60248201527f5265737472696374417070726f76653a2054686520636f6e747261637420697360448201526c103737ba1030b63637bbb2b21760991b6064820152608401611781565b6000613c9582611fc9565b9050806001600160a01b0316836001600160a01b031603613d045760405162461bcd60e51b8152602060048201526024808201527f4552433732315073693a20617070726f76616c20746f2063757272656e74206f6044820152633bb732b960e11b6064820152608401611781565b336001600160a01b0382161480613d205750613d208133612d0c565b613d925760405162461bcd60e51b815260206004820152603b60248201527f4552433732315073693a20617070726f76652063616c6c6572206973206e6f7460448201527f206f776e6572206e6f7220617070726f76656420666f7220616c6c00000000006064820152608401611781565b61162f838361444c565b60005b8115613db657600019820190911690600101613d9f565b919050565b6000613dc68261325e565b613e2a5760405162461bcd60e51b815260206004820152602f60248201527f4552433732315073693a206f70657261746f7220717565727920666f72206e6f60448201526e3732bc34b9ba32b73a103a37b5b2b760891b6064820152608401611781565b6000613e3583611fc9565b9050806001600160a01b0316846001600160a01b03161480613e705750836001600160a01b0316613e6584611716565b6001600160a01b0316145b80613a955750613a958185612d0c565b600080613e8c836135b3565b91509150846001600160a01b0316826001600160a01b031614613f065760405162461bcd60e51b815260206004820152602c60248201527f4552433732315073693a207472616e73666572206f6620746f6b656e2074686160448201526b3a1034b9903737ba1037bbb760a11b6064820152608401611781565b6001600160a01b038416613f6c5760405162461bcd60e51b815260206004820152602760248201527f4552433732315073693a207472616e7366657220746f20746865207a65726f206044820152666164647265737360c81b6064820152608401611781565b613f7985858560016144ba565b613f8460008461444c565b6000613f9184600161563e565b600881901c600090815260046020526040902054909150600160ff1b60ff83161c16158015613fc1575060085481105b15613ff857600081815260076020526040902080546001600160a01b0319166001600160a01b038816179055613ff8600482613068565b600084815260076020526040902080546001600160a01b0319166001600160a01b03871617905581841461403157614031600485613068565b83856001600160a01b0316876001600160a01b03167fddf252ad1be2c89b69c2b068fc378daa952ba7f163c4a11628f55a4df523b3ef60405160405180910390a461407f868686600161454b565b505050505050565b600061409260085490565b905061409e848461471d565b6140ac6000858386866148aa565b6118c05760405162461bcd60e51b815260206004820152603560248201527f4552433732315073693a207472616e7366657220746f206e6f6e20455243373260448201527418a932b1b2b4bb32b91034b6b83632b6b2b73a32b960591b6064820152608401611781565b60006115cc600483614a2f565b6000612d53836001600160a01b038416614b30565b60006115cc3383613a7d565b336001600160a01b0383160361419c5760405162461bcd60e51b815260206004820152601c60248201527f4552433732315073693a20617070726f766520746f2063616c6c6572000000006044820152606401611781565b336000818152600a602090815260408083206001600160a01b03871680855290835292819020805460ff191686151590811790915590519081529192917f17307eab39ab6107e8899845ad3d59bd9653f200f220920489ca2b5937696c31910160405180910390a35050565b614213848484613e80565b6140ac8484846001856148aa565b606060238054611667906154e8565b6060600061423d83614c2a565b600101905060008167ffffffffffffffff81111561425d5761425d614f7b565b6040519080825280601f01601f191660200182016040528015614287576020820181803683370190505b5090508181016020015b600019016f181899199a1a9b1b9c1cb0b131b232b360811b600a86061a8153600a850494508461429157509392505050565b600081815b8451811015611fd5576142f4828683815181106142e7576142e7615628565b6020026020010151614d0c565b91508061430081615651565b9150506142c8565b6001600160a01b0381166000908152601160205260408120541561434257506001600160a01b031660009081526011602052604090205490565b505060125490565b600f5460009060ff1661435f575060016115cc565b61436883614d3b565b80612d535750600c54604051630f8350ed60e41b81526001600160a01b038581166004830152602482018590529091169063f8350ed090604401602060405180830381865afa1580156143bf573d6000803e3d6000fd5b505050506040513d601f19601f82011682018060405250810190612d53919061596b565b60608160000180548060200260200160405190810160405280929190818152602001828054801561443357602002820191906000526020600020905b81548152602001906001019080831161441f575b50505050509050919050565b600080613a893385614d48565b600081815260096020526040902080546001600160a01b0319166001600160a01b038416908117909155819061448182611fc9565b6001600160a01b03167f8c5be1e5ebec7d5bd14f71427d1e84f3dd0314c0f7b2291e5b200ac8c7c3b92560405160405180910390a45050565b602c5460ff1615806144d357506001600160a01b038416155b806144e557506001600160a01b038316155b806144fa57506001600160a01b03831661dead145b6145465760405162461bcd60e51b815260206004820152601660248201527f7472616e736665722069732070726f68696269746564000000000000000000006044820152606401611781565b6118c0565b68010000000000000000811061456057600080fd5b806001600160a01b038516156145cd576001600160a01b0385166000908152602d6020526040812080548392906145a290849067ffffffffffffffff16615a38565b92506101000a81548167ffffffffffffffff021916908367ffffffffffffffff160217905550614635565b6001600160a01b0384166000908152602d60205260409020805482919060089061460e90849068010000000000000000900467ffffffffffffffff16615a59565b92506101000a81548167ffffffffffffffff021916908367ffffffffffffffff1602179055505b6001600160a01b038416156146a1576001600160a01b0384166000908152602d60205260408120805483929061467690849067ffffffffffffffff16615a59565b92506101000a81548167ffffffffffffffff021916908367ffffffffffffffff160217905550614711565b6001600160a01b0385166000908152602d6020526040902080548291906010906146ea908490700100000000000000000000000000000000900467ffffffffffffffff16615a59565b92506101000a81548167ffffffffffffffff021916908367ffffffffffffffff1602179055505b611b3e858585856130a3565b600061472860085490565b9050600082116147885760405162461bcd60e51b815260206004820152602560248201527f4552433732315073693a207175616e74697479206d7573742062652067726561604482015264074657220360dc1b6064820152608401611781565b6001600160a01b0383166147ea5760405162461bcd60e51b815260206004820152602360248201527f4552433732315073693a206d696e7420746f20746865207a65726f206164647260448201526265737360e81b6064820152608401611781565b6147f760008483856144ba565b8160086000828254614809919061563e565b9091555050600081815260076020526040902080546001600160a01b0319166001600160a01b038516179055614840600482613068565b61484d600084838561454b565b805b614859838361563e565b8110156118c05760405181906001600160a01b038616906000907fddf252ad1be2c89b69c2b068fc378daa952ba7f163c4a11628f55a4df523b3ef908290a4806148a281615651565b91505061484f565b60006001600160a01b0385163b15614a2257506001835b6148cb848661563e565b811015614a1c57604051630a85bd0160e11b81526001600160a01b0387169063150b7a02906149049033908b9086908990600401615a7a565b6020604051808303816000875af192505050801561493f575060408051601f3d908101601f1916820190925261493c91810190615ab6565b60015b6149ea573d80801561496d576040519150601f19603f3d011682016040523d82523d6000602084013e614972565b606091505b5080516000036149e25760405162461bcd60e51b815260206004820152603560248201527f4552433732315073693a207472616e7366657220746f206e6f6e20455243373260448201527418a932b1b2b4bb32b91034b6b83632b6b2b73a32b960591b6064820152608401611781565b805181602001fd5b828015614a0757506001600160e01b03198116630a85bd0160e11b145b92505080614a1481615651565b9150506148c1565b50614a26565b5060015b95945050505050565b600881901c60008181526020849052604081205490919060ff808516919082181c8015614a7157614a5f81614d7a565b60ff168203600884901b179350614b27565b60008311614ae75760405162461bcd60e51b815260206004820152603460248201527f4269744d6170733a205468652073657420626974206265666f7265207468652060448201527f696e64657820646f65736e27742065786973742e0000000000000000000000006064820152608401611781565b506000199091016000818152602086905260409020549091908015614b2257614b0f81614d7a565b60ff0360ff16600884901b179350614b27565b614a71565b50505092915050565b60008181526001830160205260408120548015614c19576000614b546001836154d5565b8554909150600090614b68906001906154d5565b9050818114614bcd576000866000018281548110614b8857614b88615628565b9060005260206000200154905080876000018481548110614bab57614bab615628565b6000918252602080832090910192909255918252600188019052604090208390555b8554869080614bde57614bde615ad3565b6001900381819060005260206000200160009055905585600101600086815260200190815260200160002060009055600193505050506115cc565b60009150506115cc565b5092915050565b6000807a184f03e93ff9f4daa797ed6e38ed64bf6a1f0100000000000000008310614c73577a184f03e93ff9f4daa797ed6e38ed64bf6a1f010000000000000000830492506040015b6d04ee2d6d415b85acef81000000008310614c9f576d04ee2d6d415b85acef8100000000830492506020015b662386f26fc100008310614cbd57662386f26fc10000830492506010015b6305f5e1008310614cd5576305f5e100830492506008015b6127108310614ce957612710830492506004015b60648310614cfb576064830492506002015b600a83106115cc5760010192915050565b6000818310614d28576000828152602084905260409020612d53565b6000838152602083905260409020612d53565b60006115cc600d83614de4565b60008181526010602052604081205415614d7157506000818152601060205260409020546115cc565b612d5383614308565b60006040518061012001604052806101008152602001615b4a610100913960f87e818283848586878898a8b8c8d8e8f929395969799a9b9d9e9faaeb6bedeeff614dc385614e06565b02901c81518110614dd657614dd6615628565b016020015160f81c92915050565b6001600160a01b03811660009081526001830160205260408120541515612d53565b6000808211614e1457600080fd5b5060008190031690565b6020808252825182820181905260009190848201906040850190845b81811015614e5f5783516001600160a01b031683529284019291840191600101614e3a565b50909695505050505050565b60005b83811015614e86578181015183820152602001614e6e565b50506000910152565b60008151808452614ea7816020860160208601614e6b565b601f01601f19169290920160200192915050565b602081526000612d536020830184614e8f565b6001600160e01b031981168114612e0757600080fd5b600060208284031215614ef657600080fd5b8135612d5381614ece565b80356001600160a01b0381168114613db657600080fd5b600060208284031215614f2a57600080fd5b612d5382614f01565b60008060408385031215614f4657600080fd5b614f4f83614f01565b915060208301356bffffffffffffffffffffffff81168114614f7057600080fd5b809150509250929050565b634e487b7160e01b600052604160045260246000fd5b604051601f8201601f1916810167ffffffffffffffff81118282101715614fba57614fba614f7b565b604052919050565b600067ffffffffffffffff821115614fdc57614fdc614f7b565b50601f01601f191660200190565b6000614ffd614ff884614fc2565b614f91565b905082815283838301111561501157600080fd5b828260208301376000602084830101529392505050565b60006020828403121561503a57600080fd5b813567ffffffffffffffff81111561505157600080fd5b8201601f8101841361506257600080fd5b613a9584823560208401614fea565b8015158114612e0757600080fd5b60006020828403121561509157600080fd5b8135612d5381615071565b6000602082840312156150ae57600080fd5b5035919050565b600080604083850312156150c857600080fd5b6150d183614f01565b946020939093013593505050565b6000806000606084860312156150f457600080fd5b6150fd84614f01565b925061510b60208501614f01565b9150604084013590509250925092565b60008083601f84011261512d57600080fd5b50813567ffffffffffffffff81111561514557600080fd5b6020830191508360208260051b8501011115611bfb57600080fd5b600067ffffffffffffffff82111561517a5761517a614f7b565b5060051b60200190565b600082601f83011261519557600080fd5b813560206151a5614ff883615160565b82815260059290921b840181019181810190868411156151c457600080fd5b8286015b848110156151df57803583529183019183016151c8565b509695505050505050565b6000806000604084860312156151ff57600080fd5b833567ffffffffffffffff8082111561521757600080fd5b6152238783880161511b565b9095509350602086013591508082111561523c57600080fd5b5061524986828701615184565b9150509250925092565b6000806040838503121561526657600080fd5b50508035926020909101359150565b6000806040838503121561528857600080fd5b8235915061529860208401614f01565b90509250929050565b6000806000606084860312156152b657600080fd5b8335925060208085013567ffffffffffffffff808211156152d657600080fd5b818701915087601f8301126152ea57600080fd5b81356152f8614ff882615160565b81815260059190911b8301840190848101908a83111561531757600080fd5b938501935b8285101561533c5761532d85614f01565b8252938501939085019061531c565b96505050604087013592508083111561535457600080fd5b505061524986828701615184565b6020808252825182820181905260009190848201906040850190845b81811015614e5f5783518352928401929184019160010161537e565b600080604083850312156153ad57600080fd5b6153b683614f01565b91506020830135614f7081615071565b600080600080608085870312156153dc57600080fd5b6153e585614f01565b93506153f360208601614f01565b925060408501359150606085013567ffffffffffffffff81111561541657600080fd5b8501601f8101871361542757600080fd5b61543687823560208401614fea565b91505092959194509250565b6000806000806060858703121561545857600080fd5b8435935060208501359250604085013567ffffffffffffffff81111561547d57600080fd5b6154898782880161511b565b95989497509550505050565b600080604083850312156154a857600080fd5b6154b183614f01565b915061529860208401614f01565b634e487b7160e01b600052601160045260246000fd5b818103818111156115cc576115cc6154bf565b600181811c908216806154fc57607f821691505b60208210810361551c57634e487b7160e01b600052602260045260246000fd5b50919050565b601f82111561162f57600081815260208120601f850160051c810160208610156155495750805b601f850160051c820191505b8181101561407f57828155600101615555565b815167ffffffffffffffff81111561558257615582614f7b565b6155968161559084546154e8565b84615522565b602080601f8311600181146155cb57600084156155b35750858301515b600019600386901b1c1916600185901b17855561407f565b600085815260208120601f198616915b828110156155fa578886015182559484019460019091019084016155db565b50858210156156185787850151600019600388901b60f8161c191681555b5050505050600190811b01905550565b634e487b7160e01b600052603260045260246000fd5b808201808211156115cc576115cc6154bf565b600060018201615663576156636154bf565b5060010190565b80820281158282048414176115cc576115cc6154bf565b60008261569e57634e487b7160e01b600052601260045260246000fd5b500490565b6000602082840312156156b557600080fd5b815167ffffffffffffffff8111156156cc57600080fd5b8201601f810184136156dd57600080fd5b80516156eb614ff882614fc2565b81815285602083850101111561570057600080fd5b614a26826020830160208601614e6b565b6000815461571e816154e8565b60018281168015615736576001811461574b5761577a565b60ff198416875282151583028701945061577a565b8560005260208060002060005b858110156157715781548a820152908401908201615758565b50505082870194505b5050505092915050565b7f22616e696d6174696f6e5f75726c223a20220000000000000000000000000000815260006157b66012830184615711565b61088b60f21b81526002019392505050565b607b60f81b815267113730b6b2911d1160c11b600182015260006157ef6009830188615711565b61088b60f21b8082527f226465736372697074696f6e223a220000000000000000000000000000000000600283015261582b6011830189615711565b818152691134b6b0b3b2911d101160b11b60028201529150615850600c830188615711565b9150808252508451615869816002840160208901614e6b565b7f2261747472696275746573223a5b7b2274726169745f74797065223a22747970600292909101918201526b329116113b30b63ab2911d1160a11b60228201526158b6602e820185615711565b62227d5d60e81b8152607d60f81b600382015260040198975050505050505050565b7f646174613a6170706c69636174696f6e2f6a736f6e3b6261736536342c00000081526000825161591081601d850160208701614e6b565b91909101601d0192915050565b6000835161592f818460208801614e6b565b614a2681840185615711565b60006020828403121561594d57600080fd5b5051919050565b600081615963576159636154bf565b506000190190565b60006020828403121561597d57600080fd5b8151612d5381615071565b6000835161599a818460208801614e6b565b8351908301906159ae818360208801614e6b565b01949350505050565b7f416363657373436f6e74726f6c3a206163636f756e74200000000000000000008152600083516159ef816017850160208801614e6b565b7f206973206d697373696e6720726f6c65200000000000000000000000000000006017918401918201528351615a2c816028840160208801614e6b565b01602801949350505050565b67ffffffffffffffff828116828216039080821115614c2357614c236154bf565b67ffffffffffffffff818116838216019080821115614c2357614c236154bf565b60006001600160a01b03808716835280861660208401525083604083015260806060830152615aac6080830184614e8f565b9695505050505050565b600060208284031215615ac857600080fd5b8151612d5381614ece565b634e487b7160e01b600052603160045260246000fdfe4142434445464748494a4b4c4d4e4f505152535455565758595a6162636465666768696a6b6c6d6e6f707172737475767778797a303132333435363738392b2fdf8b4c520ffe197c5343c6f5aec59570151ef9a492f2c624fd45ddde6135ec420001020903110a19042112290b311a3905412245134d2a550c5d32651b6d3a7506264262237d468514804e8d2b95569d0d495ea533a966b11c886eb93bc176c9071727374353637324837e9b47af86c7155181ad4fd18ed32c9096db57d59ee30e2e4a6a5f92a6be3498aae067ddb2eb1d5989b56fd7baf33ca0c2ee77e5caf7ff0810182028303840444c545c646c7425617c847f8c949c48a4a8b087b8c0c816365272829aaec650acd0d28fdad4e22d6991bd97dfdcea58b4d6f29fede4f6fe0f1f2f3f4b5b6b607b8b93a3a7b7bf357199c5abcfd9e168bcdee9b3f1ecf5fd1e3e5a7a8aa2b670c4ced8bbe8f0f4fc3d79a1c3cde7effb78cce6facbf9f8a264697066735822122047c09556ee8ddeffbaecee6698dcb9a7d5644f4871963b801d94d1c8b01e60df64736f6c6343000811003368747470733a2f2f73746f726167652e676f6f676c65617069732e636f6d2f68617474656e73686f2f68617474656e73686f4d657461446174612fdf8b4c520ffe197c5343c6f5aec59570151ef9a492f2c624fd45ddde6135ec424552433732315073693a207472616e7366657220746f206e6f6e204552433732",
  "linkReferences": {},
  "deployedLinkReferences": {}
}